:100000000C94AB000C94C8000C94C8000C94C8006D
:100010000C94C8000C94C8000C94C8000C94C80040
:100020000C94C8000C94C8000C94C8000C94C80030
:100030000C94C8000C94C8000C94C8000C94C80020
:100040000C94C8000C94C8000C94C8000C94C80010
:100050000C94C8006E616E00696E660000407A10F4
:10006000F35A00A0724E18090010A5D4E80000E869
:100070007648170000E40B54020000CA9A3B0000C7
:1000800000E1F505000080969800000040420F0056
:100090000000A08601000000102700000000E80317
:1000A000000000006400000000000A0000000000E2
:1000B0000100000000002C76D888DC674F0823DFA1
:1000C000C1DFAE59E1B1B796E5E3E453C63AE65174
:1000D000997696E8E6C28426EB898C9B62ED407C9B
:1000E0006FFCEFBC9C9F40F2BAA56FA5F490055A37
:1000F0002AF75C936B6CF9676DC11BFCE0E40D475C
:10010000FEF520E6B500D0ED902E0300943577057E
:100110000080841E080000204E0A000000C80C3336
:100120003333330F986E12831141EF8D2114893BC5
:10013000E65516CFFEE6DB18D1844B381BF77C1D45
:10014000901DA4BBE424203284725E228100C9F198
:1001500024ECA1E53D2711241FBECFE5D8E0DEBF8A
:10016000CDBF10E0A0E6B0E0EAE4F7E102C0059000
:100170000D92A43CB107D9F720E0A4ECB0E001C097
:100180001D92A03DB207E1F70E941B020C94A30B45
:100190000C940000662311F0C09A01C0C098C19869
:1001A00082BB8FEF81BBC29A000000000000C298A2
:1001B0000895C098C19A11BA90B3C29A0000000085
:1001C000000011BA90B3C29899239CF30E94CA0010
:1001D000089560E081E00E94D9000895CF93C62F72
:1001E00098E2899FC00D112460E082E00E94D9004E
:1001F000CC2331F060E084E10E94D900C150D1F7F6
:10020000CF910895CF93DF93EC012196FC0180817B
:10021000882331F061E00E94D90089918111FACFE1
:10022000DF91CF910895CF93DF93CDB7DEB760977D
:100230000FB6F894DEBF0FBECDBF8F3F89F090E1BF
:10024000E2E6F0E0DE01119601900D929A95E1F759
:10025000E1E0F0E0EC0FFD1FE80FF11D808101C02F
:100260008FEF60960FB6F894DEBF0FBECDBFDF9163
:10027000CF9108959C0183E083BF83E808C082BFCB
:1002800098B7916098BFA89508B600FEFDCF2150A1
:100290003109A8F713BE0895B89AB99ABA9A80E1BD
:1002A00090E00E943A0160E080E30E94CA0085E08D
:1002B00090E00E943A0160E080E30E94CA0081E081
:1002C00090E00E943A0160E08CE30E94D90060E077
:1002D0008CE00E94D90060E086E00E94D90060E0D6
:1002E00081E00E94D9000895CF93DF93EB019FE056
:1002F00094BB9FEF95BB95B321E030E002C0220F85
:10030000331F8A95E2F72095292325BB81E090E0F1
:100310000E943A0183B390E0249602C09595879598
:10032000CA95E2F721E082278170DF91CF9108958D
:10033000CF92DF92EF92FF920F931F93CF93DF93B1
:1003400000E010E0C12CD12C14C0BE01C8010E94F5
:100350007401882329F08E2D880F880F8C0F0EC012
:100360002196C430D10589F70F5F1F4F0430110566
:1003700021F0E02ECC2DDD2DE8CF8FEFDF91CF9156
:100380001F910F91FF90EF90DF90CF9008953E9ACC
:100390000895CF92DF92EF92FF92379A369A349B6C
:1003A000FECF44B155B15093CB004093CA00C090EA
:1003B000C400D090C500E090C600F090C700C7010F
:1003C000B601640F751F811D911D6093C400709369
:1003D000C5008093C6009093C7002091CE00309155
:1003E000CF002417350720F45093CF004093CE0060
:1003F00020916000309161004217530720F4509320
:100400006100409360002091C8003091C9002F5FC7
:100410003F4F3093C9002093C80040E050E00E9455
:10042000A3093093CD002093CC003498FF90EF9037
:10043000DF90CF900895CF93DF93CDB7DEB7CD5740
:10044000D1090FB6F894DEBF0FBECDBF0E944C019C
:100450000E94C70160E080E00E94EE008FE0E2E7CA
:10046000F0E0DE01119601900D928A95E1F7CE0140
:1004700001960E94020160E081E00E94EE008FE0A0
:10048000E1E8F0E0DE01D39601900D928A95E1F764
:10049000CE01C3960E9402019E012F5F3F4F1901BA
:1004A000CE01C396A7969FAF8EAFA797022FEC966B
:1004B0003FAEEC97A6969FADA697ED969FAFED97B2
:1004C000A796AFADA797EE96AFAFEE970E949801B3
:1004D0000E941301813409F04CC10E9498010E94CE
:1004E0001301182F0E94E9000E94C9016091CA00FF
:1004F0007091CB0080E090E00E942C0520E030EC71
:100500004FE754E40E948B0420E030E040EA50E4DE
:100510000E94BA05AF966CAF7DAF8EAF9FAFAF971D
:10052000609160007091610080E090E00E942C0575
:1005300020E030EC4FE754E40E948B0420E030E0F0
:1005400040EA50E40E94BA05E3966CAF7DAF8EAFEF
:100550009FAFE3976091CE007091CF0080E090E074
:100560000E942C0520E030EC4FE754E40E948B04FD
:1005700020E030E040EA50E40E94BA05E7966CAF14
:100580007DAF8EAF9FAFE7976091CC007091CD00AB
:1005900080E090E00E942C0520E030EC4FE754E42E
:1005A0000E948B0420E030E040EA50E40E94BA054B
:1005B000EB966CAF7DAF8EAF9FAFEB97AF966CAD08
:1005C0007DAD8EAD9FADAF970E94FD04AB966CAF35
:1005D0007DAF8EAF9FAFAB97E3966CAD7DAD8EAD2B
:1005E0009FADE3970E94FD044B015C01E7966CAD63
:1005F0007DAD8EAD9FADE7970E94FD042B013C01C0
:10060000EB966CAD7DAD8EAD9FADEB970E94FD047A
:100610006B017C0160E080E00E94EE00B60180E0AA
:1006200090E00E942C059B01AC01EB966CAD7DAD7A
:100630008EAD9FADEB970E941E0420E030E048ECA9
:1006400052E40E94BA050E94FD047F936F93DF92EB
:10065000CF92A9962EAD3FADA997B90180E090E069
:100660000E942C059B01AC01AF966CAD7DAD8EADAB
:100670009FADAF970E941E0420E030E048EC52E4AA
:100680000E94BA050E94FD047F936F93A9963FAD27
:10069000A9973F93A8968FADA8978F93A0E9B0E054
:1006A000BF93AF933F922F920E94220B802FEC9624
:1006B0009FADEC970E94020160E081E00E94EE0095
:1006C000B20180E090E00E942C059B01AC01E7960E
:1006D0006CAD7DAD8EAD9FADE7970E941E0420E00E
:1006E00030E048EC52E40E94BA050E94FD047F937A
:1006F0006F935F924F92B40180E090E00E942C05CE
:100700009B01AC01E3966CAD7DAD8EAD9FADE397E3
:100710000E941E0420E030E048EC52E40E94BA053A
:100720000E94FD047F936F939F928F92AAEAB0E09C
:10073000BF93AF93A7963FADA7973F93A6968FAD74
:10074000A6978F930E94220BED968FADED97EE96B4
:100750009FADEE970E94020184EF91E00E943A0162
:100760000FB6F894DEBF0FBECDBF123409F0B5CE80
:1007700003C0823409F0AACE1092CF001092CE00AE
:100780002FEF3FE730936100209360001092CD007F
:100790001092CC001092C9001092C8001092CB00A9
:1007A0001092CA001092C4001092C5001092C600A8
:1007B0001092C7000E94E90060E080E00E94EE0015
:1007C0001F921F921F921F921F921F921F921F92A1
:1007D000A0E9B0E0BF93AF933F922F920E94220B0B
:1007E000802FEC969FADEC970E94020160E081E0C3
:1007F0000E94EE001F921F921F921F921F921F9243
:100800001F921F92AAEAB0E0BF93AF93A7963FADA5
:10081000A7973F93A6968FADA6978F930E94220B22
:10082000ED968FADED97EE969FADEE970E9402018B
:100830000FB6F894DEBF0FBECDBF48CE5058BB27D1
:10084000AA270E9436040C9480050E94720538F095
:100850000E94790520F039F49F3F19F426F40C9496
:100860006F050EF4E095E7FB0C946905E92F0E94F3
:10087000910558F3BA17620773078407950720F0AC
:1008800079F4A6F50C94B3050EF4E0950B2EBA2F6F
:10089000A02D0B01B90190010C01CA01A001112486
:1008A000FF27591B99F0593F50F4503E68F11A1632
:1008B000F040A22F232F342F4427585FF3CF4695C3
:1008C00037952795A795F0405395C9F77EF41F16E5
:1008D000BA0B620B730B840BBAF09150A1F0FF0FAF
:1008E000BB1F661F771F881FC2F70EC0BA0F621F9B
:1008F000731F841F48F4879577956795B795F7958B
:100900009E3F08F0B0CF9395880F08F09927EE0F1F
:100910009795879508950E949F040C9480050E94E6
:10092000790558F00E94720540F029F45F3F29F0E4
:100930000C94690551110C94B4050C946F050E9438
:10094000910568F39923B1F3552391F3951B550B4A
:10095000BB27AA2762177307840738F09F5F5F4F92
:10096000220F331F441FAA1FA9F335D00E2E3AF0D1
:10097000E0E832D091505040E695001CCAF72BD0E9
:10098000FE2F29D0660F771F881FBB1F261737073A
:100990004807AB07B0E809F0BB0B802DBF01FF276C
:1009A00093585F4F3AF09E3F510578F00C946905DB
:1009B0000C94B4055F3FE4F3983ED4F386957795A5
:1009C0006795B795F7959F5FC9F7880F911D969525
:1009D000879597F90895E1E0660F771F881FBB1F81
:1009E000621773078407BA0720F0621B730B840B2E
:1009F000BA0BEE1F88F7E09508950E94990588F0DC
:100A00009F5798F0B92F9927B751B0F0E1F0660FD2
:100A1000771F881F991F1AF0BA95C9F714C0B13013
:100A200091F00E94B305B1E008950C94B305672FCF
:100A3000782F8827B85F39F0B93FCCF38695779542
:100A40006795B395D9F73EF490958095709561952B
:100A50007F4F8F4F9F4F0895E89409C097FB3EF456
:100A600090958095709561957F4F8F4F9F4F9923FB
:100A7000A9F0F92F96E9BB279395F6958795779579
:100A80006795B795F111F8CFFAF4BB0F11F460FF39
:100A90001BC06F5F7F4F8F4F9F4F16C0882311F091
:100AA00096E911C0772321F09EE8872F762F05C0A5
:100AB000662371F096E8862F70E060E02AF09A9540
:100AC000660F771F881FDAF7880F9695879597F935
:100AD000089597F99F6780E870E060E008959FEFC0
:100AE00080EC089500240A941616170618060906C5
:100AF000089500240A941216130614060506089594
:100B0000092E0394000C11F4882352F0BB0F40F41B
:100B1000BF2B11F460FF04C06F5F7F4F8F4F9F4F5B
:100B2000089557FD9058440F551F59F05F3F71F0DD
:100B30004795880F97FB991F61F09F3F79F0879544
:100B40000895121613061406551FF2CF4695F1DFCD
:100B500008C0161617061806991FF1CF869571055D
:100B6000610508940895E894BB2766277727CB0191
:100B700097F908950E94CD050C9480050E94720596
:100B800038F00E94790520F0952311F00C94690546
:100B90000C946F0511240C94B4050E94910570F318
:100BA000959FC1F3950F50E0551F629FF001729F12
:100BB000BB27F00DB11D639FAA27F00DB11DAA1F21
:100BC000649F6627B00DA11D661F829F2227B00D6E
:100BD000A11D621F739FB00DA11D621F839FA00DF9
:100BE000611D221F749F3327A00D611D231F849F49
:100BF000600D211D822F762F6A2F11249F575040A0
:100C00009AF0F1F088234AF0EE0FFF1FBB1F661F1A
:100C1000771F881F91505040A9F79E3F510580F0E3
:100C20000C9469050C94B4055F3FE4F3983ED4F34B
:100C3000869577956795B795F795E7959F5FC1F787
:100C4000FE2B880F911D9695879597F90895A3E13E
:100C5000B0E0EDE2F6E00C94C5096C014B012A010D
:100C6000FC0117821682838181FF43C3AE014F5F6F
:100C70005F4F3A01F6019381F40193FD859193FF53
:100C800081914F01882309F430C3853239F493FDF3
:100C9000859193FF81914F01853239F4B60190E03F
:100CA0000E94EA0A52012501E5CF10E0F12C20E074
:100CB0002032A0F48B3269F030F4803259F0833264
:100CC00069F420612CC08D3239F0803339F4216011
:100CD00026C02260246023C0286021C027FD27C0D1
:100CE00030ED380F3A3078F426FF06C0FAE01F9F47
:100CF000300D1124132F13C04AE0F49E300D11243F
:100D0000F32E20620CC08E3221F426FDEEC2206448
:100D100006C08C3611F4206802C0883641F4F40114
:100D200093FD859193FF81914F018111C1CF9BEB81
:100D3000980F933018F42061805E06C09BE9980FED
:100D4000933008F071C12F7E26FF16E02F73322EEC
:100D5000853619F42064322E08C0863621F4F22F2D
:100D6000F0683F2E02C01111115037FE07C01C332E
:100D700050F4EE24E394E10E27E00BC0183038F075
:100D800027E017E005C027E04CE3E42E02C0212F46
:100D9000E12C520144E0A40EB11CF201608171818A
:100DA000828193810E2DA3010E94FC092C010981EF
:100DB00000FF02C003FF07C031FC08C032FE09C0BB
:100DC00030E2232E07C02DE2222E04C09BE2292E02
:100DD00001C0212C802F8C7019F0211068C2A8C28C
:100DE00037FE0FC0E40C04FF04C08A81813309F48C
:100DF000EA941E1474F5F8E0FE1578F588E0E82E04
:100E00002CC036FC2AC0812F90E0841595059CF0FB
:100E10002CEF42162FEF520674F0432D4068342E0B
:100E20000AC0E2E0F0E0EC0FFD1FE10FF11D808150
:100E3000803319F411501111F4CF37FE0EC0EE2497
:100E4000E394E10E812F90E0481659062CF4141912
:100E500004C0EE24E39401C010E037FE06C0141471
:100E6000150434F4C201019605C085E090E002C08B
:100E700081E090E021100196112331F0212F30E024
:100E80002F5F3F4F820F931F2F2D30E08217930764
:100E900014F4F81A01C0F12C832D897049F4FF2055
:100EA00039F0B60180E290E00E94EA0AFA94F7CFA6
:100EB000222029F0B601822D90E00E94EA0A33FC3C
:100EC00009C0FF2039F0B60180E390E00E94EA0AF1
:100ED000FA94F7CF37FE5AC0942D852D57FE02C0E5
:100EE00090E080E0292E382E20E030E0A2014E195B
:100EF00051095D874C87A201421953095F874E87CC
:100F0000612F70E044275527461B570B598B488BA0
:100F10005FEF2516350649F4B6018EE290E02A8B84
:100F20003B8B0E94EA0A3B892A89421453046CF0E5
:100F30004C855D854215530544F4EE85FF85E20F2F
:100F4000F31FE60DF71D818101C080E351E0251AF2
:100F500031082F5F3F4F48895989241635064CF0D8
:100F6000B60190E02A8B3B8B0E94EA0A2A893B89D2
:100F7000CFCF2414350439F49A81963318F495337D
:100F800011F404FF81E3B60190E04BC08A81813304
:100F900009F00F7EB60190E00E94EA0A111105C027
:100FA00034FC18C085E690E017C0B6018EE290E0F0
:100FB0000E94EA0A82E0EE24E394E80EF301E80FCF
:100FC000F11D8081B60190E00E94EA0A11508E2D39
:100FD00091F7E6CF85E490E0B6010E94EA0A57FC5B
:100FE00005C04114510439F404FF05C051944194E3
:100FF00051088DE201C08BE2B60190E00E94EA0A3E
:1010000080E39AE0491651042CF08F5F5AE0451AAC
:101010005108F7CFB60190E00E94EA0AB601C2017A
:10102000C0960E94EA0A57C1833631F0833779F0BF
:10103000833509F058C021C05201E2E0AE0EB11C68
:10104000F2018081898301E010E0230114C0520184
:10105000F2E0AF0EB11CF2014080518026FF03C0C8
:10106000612F70E002C06FEF7FEFC2012A8B0E94F8
:10107000DF0A8C012A892F7715C05201F2E0AF0EEA
:10108000B11CF2014080518026FF03C0612F70E047
:1010900002C06FEF7FEFC2012A8B0E94D40A8C013D
:1010A0002A892068322E23FD1AC08F2D90E0081760
:1010B0001907A8F4B60180E290E00E94EA0AFA94C7
:1010C000F4CFF20137FC859137FE81912F01B601F3
:1010D00090E00E94EA0AF110FA94015011090115FA
:1010E000110579F7F8C0843611F0893659F55201A7
:1010F00027FF09C0F4E0AF0EB11CF20160817181DD
:10110000828193810AC0F2E0AF0EB11CF2016081CE
:101110007181072E000C880B990B2F76322E97FFCA
:1011200009C090958095709561957F4F8F4F9F4F27
:101130002068322E2AE030E0A3010E94450BE82E01
:10114000E6183FC0022F853721F40F7E2AE030E0F9
:101150001DC0097F8F3691F018F4883559F0C5C04D
:10116000803719F0883711F0C0C0006104FF09C052
:10117000046007C024FF08C0066006C028E030E015
:1011800005C020E130E002C020E132E0520107FF5B
:1011900009C0F4E0AF0EB11CF2016081718182815F
:1011A000938108C0F2E0AF0EB11CF2016081718141
:1011B00080E090E0A3010E94450BE82EE6180F772F
:1011C000302E36FE0BC0332D3E7FE11650F434FE38
:1011D0000AC032FC08C0332D3E7E05C00E2D332DD3
:1011E00003C00E2D01C0012F34FF0CC0FE01EE0D17
:1011F000F11D8081803311F4397E08C032FF05C0B3
:101200000E5F04C0832F867809F00F5F33FD13C093
:1012100030FF06C01E2D0F1518F41F0D101B0F2DCB
:101220000F1568F4B60180E290E03B8B0E94EA0A59
:101230000F5F3B89F5CF0F1510F4F01A01C0F12CA8
:1012400034FF12C0B60180E390E03B8B0E94EA0AB3
:101250003B8932FF17C031FD03C088E790E002C030
:1012600088E590E0B6010CC0832F867859F031FFF5
:1012700002C08BE201C080E237FD8DE2B60190E052
:101280000E94EA0AE11638F4B60180E390E00E9479
:10129000EA0A1150F7CFEA94F301EE0DF11D8081B7
:1012A000B60190E00E94EA0AE110F5CF14C0F4E024
:1012B000FF1558F584E0F81A33FE1EC0211026C031
:1012C00003FF2AC004E510E0F32DF0713F2EF80172
:1012D0008491811124C0FF2009F4E5CCB60180E29D
:1012E00090E00E94EA0AFA94F6CFF601868197818F
:1012F00026C08FEF9FEF23C0B60180E290E00E94EE
:10130000EA0AFA94F110F8CFD9CFF12CB601822D68
:1013100090E00E94EA0AD4CF08E510E0D5CF311062
:101320008052B60190E00E94EA0A0F5F1F4FCFCFB4
:1013300023E02F1510F483E0BECFF12CC1CF6396CC
:10134000E2E10C94E109A1E21A2EAA1BBB1BFD01EC
:101350000DC0AA1FBB1FEE1FFF1FA217B307E40794
:10136000F50720F0A21BB30BE40BF50B661F771FEC
:10137000881F991F1A9469F76095709580959095CC
:101380009B01AC01BD01CF0108952F923F924F9276
:101390005F926F927F928F929F92AF92BF92CF9205
:1013A000DF92EF92FF920F931F93CF93DF93CDB70E
:1013B000DEB7CA1BDB0B0FB6F894DEBF0FBECDBF86
:1013C00009942A88398848885F846E847D848C8457
:1013D0009B84AA84B984C884DF80EE80FD800C8160
:1013E0001B81AA81B981CE0FD11D0FB6F894DEBF43
:1013F0000FBECDBFED010895283008F027E0332758
:10140000DA01990F311D87FD916000966105710524
:1014100039F432602E5F3D9330E32A95E1F7089569
:101420009F3F30F080387105610509F03C5F3C5FFB
:101430003D93913008F08068911DDF93CF931F9307
:101440000F93FF92EF92192F987F9695E92F96951B
:101450009695E90FFF27EA54FF4F99273327EE248B
:10146000FF24A701E70105900894079428F4360F9C
:10147000E71EF81E491F511D660F771F881F991F11
:101480000694A1F70590079428F4E70EF81E491F6B
:10149000561FC11D770F881F991F661F0694A1F75D
:1014A0000590079428F4F80E491F561FC71FD11D39
:1014B000880F991F661F771F0694A1F70590079460
:1014C00020F4490F561FC71FD81F990F661F771F9B
:1014D000881F0694A9F784911095177041F0D6954E
:1014E000C79557954795F794E7941A95C1F7ECE59A
:1014F000F0E068941590159135916591959105905E
:101500007FE27395E118F10A430B560BC90BD00922
:10151000C0F7E10CF11E431F561FC91FD01D7EF4FA
:10152000703311F48A95E6CFE894015030F0080F3B
:101530000AF40027021708F4202F2395022F7A338C
:1015400028F079E37D932A95E9F710C07D932A95D9
:1015500089F6069497956795379517951794E1182E
:10156000F10A430B560BC90BD00998F023957E91D5
:1015700073957A3308F070E37C932013B8F77E916B
:1015800070617D9330F0839571E37D9370E32A95CC
:10159000E1F71124EF90FF900F911F91CF91DF9110
:1015A000992787FD90950895FC0105906150704042
:1015B0000110D8F7809590958E0F9F1F0895FC011C
:1015C0006150704001900110D8F7809590958E0F72
:1015D0009F1F08950F931F93CF93DF93FB012381E8
:1015E00021FD03C08FEF9FEF28C022FF16C0468168
:1015F0005781248135814217530744F4A081B1817A
:101600009D012F5F3F4F318320838C93268137814B
:101610002F5F3F4F3783268310C0EB01092F182F10
:101620000084F185E02D0995892BE1F68E819F815B
:1016300001969F838E83812F902FDF91CF911F91F1
:101640000F910895AEE0B0E0E8E2FBE00C94D3091E
:101650000D891E8986E08C831A8309838FEF9FE7AB
:101660009E838D83AE01475E5F4F6F89788DCE017B
:1016700001960E9427062F813885F801E20FF31F9B
:1016800010822E96E4E00C94EF09FA01AA27283084
:1016900051F1203181F1E8946F936E7F6E5F7F4F3F
:1016A0008F4F9F4FAF4FB1E03ED0B4E03CD0670FBB
:1016B000781F891F9A1FA11D680F791F8A1F911D0E
:1016C000A11D6A0F711D811D911DA11D20D009F45E
:1016D00068943F912AE0269F11243019305D3193A0
:1016E000DEF6CF010895462F4770405D4193B3E089
:1016F0000FD0C9F7F6CF462F4F70405D4A3318F030
:10170000495D31FD4052419302D0A9F7EACFB4E0E0
:10171000A6959795879577956795BA95C9F7009798
:101720006105710508959B01AC010A2E0694579539
:10173000479537952795BA95C9F7620F731F841F90
:0A174000951FA01D0895F894FFCF37
:10174A00FF7F3132334134353642373839432A3014
:10175A002344413A53746172742053616D706C650D
:10176A0000423A52657365742053616D706C65006E
:10177A0043563A253031642E253032642041563A98
:10178A00253031642E25303264004D4E3A253031F1
:10179A00642E25303264204D583A253031642E2586
:0417AA003032640075
:00000001FF
