S011000050726F6A6563745F322E73726563AB
S11300000C942A000C943F000C943F000C943F0085
S11300100C943F000C943F000C943F000C943F0060
S11300200C943F000C943F000C943F000C943F0050
S11300300C943F000C943F000C943F000C943F0040
S11300400C943F000C943F000C943F000C943F0030
S11300500C943F0011241FBECFE5D8E0DEBFCDBF16
S113006010E0A0E6B0E0ECEFFEE002C005900D92D7
S1130070A03DB107D9F70E94F4030C947C070C94BB
S11300800000662311F0C09A01C0C098C19882BBD9
S11300908FEF81BBC29A000000000000C29808954F
S11300A0C098C19A11BA90B3C29A0000000000002F
S11300B011BA90B3C29899239CF30E944100089509
S11300C060E081E00E9450000895CF93C62F98E22B
S11300D0899FC00D112460E082E00E945000CC236F
S11300E031F060E084E10E945000C150D1F7CF911B
S11300F0089561E00E9450000895CF93DF93EC01CE
S11301002196FC018081882331F061E00E94500037
S113011089918111FACFDF91CF9108959C0183E0F9
S113012083BF83E808C082BF98B7916098BFA89541
S113013008B600FEFDCF21503109A8F713BE08957B
S1130140B89AB99ABA9A80E190E00E948E0060E071
S113015080E30E94410085E090E00E948E0060E010
S113016080E30E94410081E090E00E948E0060E004
S11301708CE30E94500060E08CE00E94500060E03C
S113018086E00E94500060E081E00E9450000895E3
S1130190CF93DF93CDB7DEB760970FB6F894DEBF89
S11301A00FBECDBF90E1E0E6F0E0DE0111960190D4
S11301B00D929A95E1F7E1E0F0E0EC0FFD1FE80FF6
S11301C0F11D808160960FB6F894DEBF0FBECDBFDF
S11301D0DF91CF910895CF93DF93EB019FE094BB20
S11301E09FEF95BB95B321E030E002C0220F331F8F
S11301F08A95E2F72095292325BB81E090E00E94AF
S11302008E0083B390E0249602C095958795CA9595
S1130210E2F721E082278170DF91CF910895CF9298
S1130220DF92EF92FF920F931F93CF93DF9300E03F
S113023010E0C12CD12C14C0BE01C8010E94EB00F7
S1130240882329F08E2D880F880F8C0F0EC02196DD
S1130250C430D10589F70F5F1F4F0430110521F019
S1130260E02ECC2DDD2DE8CF8FEFDF91CF911F91C4
S11302700F91FF90EF90DF90CF9008952F924F92BF
S11302805F926F927F928F929F92AF92BF92CF9222
S1130290DF92EF92FF920F931F93CF93DF93CDB72B
S11302A0DEB7C254D1090FB6F894DEBF0FBECDBF7E
S11302B06C017B012A0160E080E00E94650088E80F
S11302C090E09F938F938DE890E09F938F9380E9C4
S11302D090E09F938F9383E990E09F938F93CE0157
S11302E001965C019F938F930E94A404C5010E9410
S11302F07D0060E080E00E9465000FB6F894DEBFE8
S11303000FBECDBF23961FAE1EAE23975E01F1E351
S1130310AF0EB11C4E0181E2880E911C3E0191E1A9
S1130320690E711C53C00E940F010E94C800182F4F
S113033080ED810F8A3008F04DC02396EEADFFADFD
S11303402397E230F10511F0359721F48FE20E94F2
S113035079002FC023968EAD9FAD23978A309105E7
S11303603CF5029754F4812F0E947900F301019027
S11303700020E9F7319710831CC023968EAD9FAD02
S113038023970397029750F4812F0E947900F40178
S113039001900020E9F7319710830BC0812F0E9450
S11303A07900F50101900020E9F73197108301C02D
S11303B013E42396EEADFFAD239731962396FFAF5A
S11303C0EEAF239780E991E00E948E00133409F088
S11303D0AACF03C0133409F0A6CFCE0141960E94E0
S11303E07E048C01CE0181960E947E045C01CE01C4
S11303F0C1960E947E040115110571F0A114B10487
S113040059F0009749F0F60111830083F701B18296
S1130410A082F2019183808383E4CE5BDF4F0FB629
S1130420F894DEBF0FBECDBFDF91CF911F910F9126
S1130430FF90EF90DF90CF90BF90AF909F908F9000
S11304407F906F905F904F902F9008953F924F92BE
S11304505F926F927F928F929F92AF92BF92CF9250
S1130460DF92EF92FF920F931F93CF93DF93CDB759
S1130470DEB7A8970FB6F894DEBF0FBECDBF4C0110
S11304805B012A0160E081E00E9465008FE990E051
S11304909F938F9380E990E09F938F9382EA90E0FB
S11304A09F938F9385EA90E09F938F938E010F5FC4
S11304B01F4F1F930F930E94A404C8010E947D0044
S11304C060E081E00E9465000FB6F894DEBF0FBEC5
S11304D0CDBF00E010E07E0191E2E90EF11C6E0157
S11304E0E9E1CE0ED11C3E01F1E16F0E711C0E94B8
S11304F00F010E94C800382E80ED830D8A30C0F5AC
S11305000230110519F00530110521F48AE30E9427
S1130510790028C0083011050CF044C002301105E0
S113052054F4832D0E947900F30101900020E9F72F
S11305303197308217C0C8010397029750F4832D76
S11305400E947900F60101900020E9F7319730828A
S113055009C0832D0E947900F70101900020E9F77A
S1130560319730820F5F1F4F80E991E00E948E0027
S113057083E43812BCCFCE0141960E947E047C01F4
S1130580CE0149960E947E048C01CE0181960E9480
S11305907E04F401F182E082F50111830083F2010B
S11305A09183808383E4A8960FB6F894DEBF0FBED0
S11305B0CDBFDF91CF911F910F91FF90EF90DF900E
S11305C0CF90BF90AF909F908F907F906F905F90EF
S11305D04F903F9008956F927F928F929F92AF9227
S11305E0BF92CF92DF92EF92FF920F931F93CF931C
S11305F0DF93CDB7DEB7C856D1090FB6F894DEBF86
S11306000FBECDBF5C014B016A01390188E1E0E70F
S1130610F0E0DE01119601900D928A95E1F7DA017E
S11306208D919C911197CC97D9F4FB018081918194
S1130630CB9761F41D921C9211821082D5018D9189
S11306409C91119701968D939C930AC0FA01118293
S11306501082DB018D919C91119701968D939C934F
S1130660F5018081918148977CF0D6011D921C92FE
S1130670F40111821082D5011D921C92F80180812F
S11306809181019691838083D3018D919C91FC018A
S11306903197EE0FFF1FEC0FFD1FD8014D915C91B8
S11306A0218132812417350714F50196F3019183D2
S11306B080830297E1F4D7012D913C91C90160E94F
S11306C071E00E945604892B29F5C901837099278A
S11306D0892B01F5C90164E670E00E945604892B58
S11306E0C9F0F80180819181019691838083D301BF
S11306F08D919C9111970D976CF0F70180819181F8
S113070001969183808381E090E08D939C93D8013E
S11307108D939C930E94600060E080E00E946500DD
S1130720F70181818F9380818F93D80111968C91E9
S113073011978F938C918F93F30181818F93808193
S11307408F9381EB90E09F938F938E01075E1F4FF1
S11307501F930F930E94A404C8010E947D0060E0CF
S113076081E00E946500D60111968C9111978F93B8
S11307708C918F93F40181818F9380818F93D50124
S113078011968C9111978F938C918F9380EC90E0BC
S11307909F938F93085D1F4F1F930F930E94A40490
S11307A0C8010E947D00F6018081918101969183A8
S11307B080830FB6F894DEBF0FBECDBFC859DF4F9C
S11307C00FB6F894DEBF0FBECDBFDF91CF911F915E
S11307D00F91FF90EF90DF90CF90BF90AF909F90DC
S11307E08F907F906F900895CF93DF93CDB7DEB74E
S11307F02C970FB6F894DEBF0FBECDBF1A821982B4
S11308001C821B821E821D8281E090E098878F8368
S11308109A87898789ED97E09C878B870E94A0003F
S11308200E9460000E940F018F3F49F11EE40E9464
S11308300F018F3F11F10E94C800182F813461F419
S1130840AE01455F5F4FBE01675F7F4FCE010796E4
S11308500E943E01182F0DC0823459F4AE014F5F3F
S11308605F4FBE016D5F7F4FCE0105960E94260249
S1130870182F80E991E00E948E001334C1F6CE0156
S11308800B967C018E01075F1F4F9E01295F3F4F2E
S1130890AE014F5F5F4FBE016D5F7F4F06970E94B1
S11308A0EB0288EE93E00E948E00BCCF97FB072EEC
S11308B016F4009407D077FD09D00E946A0407FC5F
S11308C005D03EF4909581959F4F0895709561955C
S11308D07F4F0895AA1BBB1B51E107C0AA1FBB1F72
S11308E0A617B70710F0A61BB70B881F991F5A95B8
S11308F0A9F780959095BC01CD010895FC01882746
S11309009927E89421912032E9F3293010F02E3010
S1130910C8F32B3241F02D3239F4689404C00E949C
S11309209C04820F911D219120532A30C0F31EF4A0
S1130930909581959F4F08957AE0979F902D879F7A
S1130940802D910D11240895AEE0B0E0EAEAF4E0C0
S11309500C9453070D891E8986E08C831A830983BE
S11309608FEF9FE79E838D83AE01475E5F4F6F8954
S1130970788DCE0101960E94C7042F813885F80135
S1130980E20FF31F10822E96E4E00C946F07ACE0A4
S1130990B0E0EDECF4E00C9445077C016B018A01B6
S11309A0FC0117821682838181FFBDC1CE010196AD
S11309B04C01F7019381F60193FD859193FF819199
S11309C06F01882309F4ABC1853239F493FD859115
S11309D093FF81916F01853229F4B70190E00E9461
S11309E0AF06E7CF512C312C20E02032A0F48B321B
S11309F069F030F4803259F0833269F420612CC0FC
S1130A008D3239F0803339F4216026C022602460AD
S1130A1023C0286021C027FD27C030ED380F3A30AD
S1130A2078F426FF06C0FAE05F9E300D1124532EA1
S1130A3013C08AE0389E300D1124332E20620CC07E
S1130A408E3221F426FD6BC1206406C08C3611F46D
S1130A50206802C0883641F4F60193FD859193FF26
S1130A6081916F018111C1CF982F9F7D955493304F
S1130A7028F40C5F1F4FFFE3F9830DC0833631F078
S1130A80833771F0833509F05BC022C0F80180819F
S1130A9089830E5F1F4F44244394512C540115C085
S1130AA03801F2E06F0E711CF801A080B18026FFBE
S1130AB003C0652D70E002C06FEF7FEFC5012C8786
S1130AC00E94A4062C0183012C852F77222E17C0A7
S1130AD03801F2E06F0E711CF801A080B18026FF8E
S1130AE003C0652D70E002C06FEF7FEFC5012C8756
S1130AF00E9499062C012C852068222E830123FC58
S1130B001BC0832D90E048165906B0F4B70180E26B
S1130B1090E00E94AF063A94F4CFF50127FC85914A
S1130B2027FE81915F01B70190E00E94AF0631106A
S1130B303A94F1E04F1A51084114510471F7E5C099
S1130B40843611F0893639F5F80127FF07C0608132
S1130B507181828193810C5F1F4F08C06081718114
S1130B60072E000C880B990B0E5F1F4F2F76722EE9
S1130B7097FF09C090958095709561957F4F8F4F31
S1130B809F4F2068722E2AE030E0A4010E94E706FD
S1130B90A82EA81844C0853729F42F7EB22E2AE047
S1130BA030E025C0F22FF97FBF2E8F36C1F018F444
S1130BB0883579F0B4C0803719F0883721F0AFC098
S1130BC02F2F2061B22EB4FE0DC08B2D8460B82E61
S1130BD009C024FF0AC09F2F9660B92E06C028E0E2
S1130BE030E005C020E130E002C020E132E0F8014D
S1130BF0B7FE07C060817181828193810C5F1F4FB2
S1130C0006C06081718180E090E00E5F1F4FA401F7
S1130C100E94E706A82EA818FB2DFF777F2E76FEEC
S1130C200BC0372D3E7FA51450F474FE0AC072FC2D
S1130C3008C0372D3E7E05C0BA2C372D03C0BA2C10
S1130C4001C0B52C34FF0DC0FE01EA0DF11D8081F9
S1130C50803311F4397E09C032FF06C0B394B394D3
S1130C6004C0832F867809F0B39433FD13C030FF9A
S1130C7006C05A2CB31418F4530C5B18B32CB314D9
S1130C8068F4B70180E290E03C870E94AF06B39419
S1130C903C85F5CFB31410F43B1801C0312C34FF5C
S1130CA012C0B70180E390E03C870E94AF063C8508
S1130CB032FF17C031FD03C088E790E002C088E529
S1130CC090E0B7010CC0832F867859F031FF02C041
S1130CD08BE201C080E237FD8DE2B70190E00E9413
S1130CE0AF06A51438F4B70180E390E00E94AF0684
S1130CF05A94F7CFAA94F401EA0DF11D8081B7014B
S1130D0090E00E94AF06A110F5CF332009F451CE34
S1130D10B70180E290E00E94AF063A94F6CFF70163
S1130D208681978102C08FEF9FEF2C96E2E10C94AD
S1130D306107FC010590615070400110D8F780955F
S1130D4090958E0F9F1F0895FC0161507040019093
S1130D500110D8F7809590958E0F9F1F08950F93DB
S1130D601F93CF93DF93FB01238121FD03C08FEFFA
S1130D709FEF28C022FF16C0468157812481358108
S1130D804217530744F4A081B1819D012F5F3F4F67
S1130D90318320838C93268137812F5F3F4F3783A4
S1130DA0268310C0EB01092F182F0084F185E02D54
S1130DB00995892BE1F68E819F8101969F838E830D
S1130DC0812F902FDF91CF911F910F910895FA01F8
S1130DD0AA27283051F1203181F1E8946F936E7F76
S1130DE06E5F7F4F8F4F9F4FAF4FB1E03ED0B4E067
S1130DF03CD0670F781F891F9A1FA11D680F791FA8
S1130E008A1F911DA11D6A0F711D811D911DA11DB8
S1130E1020D009F468943F912AE0269F11243019C8
S1130E20305D3193DEF6CF010895462F4770405D63
S1130E304193B3E00FD0C9F7F6CF462F4F70405D12
S1130E404A3318F0495D31FD4052419302D0A9F76D
S1130E50EACFB4E0A6959795879577956795BA9567
S1130E60C9F700976105710508959B01AC010A2E2D
S1130E7006945795479537952795BA95C9F7620F04
S1130E80731F841F951FA01D08952F923F924F92A8
S1130E905F926F927F928F929F92AF92BF92CF9206
S1130EA0DF92EF92FF920F931F93CF93DF93CDB70F
S1130EB0DEB7CA1BDB0B0FB6F894DEBF0FBECDBF87
S1130EC009942A88398848885F846E847D848C8458
S1130ED09B84AA84B984C884DF80EE80FD800C8161
S1130EE01B81AA81B981CE0FD11D0FB6F894DEBF44
S10F0EF00FBECDBFED010895F894FFCFB4
S1130EFC3132334134353642373839432A3023447E
S1130F0C1F001C001F001E001F001E001F001F00DE
S1130F1C1E001F001E001F0059595959004444005B
S1130F2C4D4D002532732F2532732F253473005306
S1130F3C53004848002532733A2532733A253273EC
S1130F4C00253032642F253032642F253034640070
S1130F5C253032643A253032643A2530326400004C
S9030000FC
