S011000050726F6A6563745F352E73726563A8
S11300000C942A000C9447000C9447000C9447006D
S11300100C9447000C9447000C9447000C94090777
S11300200C9447000C9447000C9447000C94470030
S11300300C9447000C9447000C9447000C94470020
S11300400C9447000C9447000C9447000C94470010
S11300500C94470011241FBECFE5D8E0DEBFCDBF0E
S113006011E0A0E6B0E0EAE5F4E102C005900D92EB
S1130070A238B107D9F721E0A2E8B1E001C01D928E
S1130080A439B207E1F70E94B3060C942B0A0C942E
S11300900000662311F0C09A01C0C098C19882BBC9
S11300A08FEF81BBC29A000000000000C29808953F
S11300B0C098C19A11BA90B3C29A0000000000001F
S11300C011BA90B3C29899239CF30E9449000895F1
S11300D060E081E00E9458000895CF93C62F98E213
S11300E0899FC00D112460E082E00E945800CC2357
S11300F031F060E084E10E945800C150D1F7CF9103
S1130100089561E00E9458000895CF93DF93EC01B5
S11301102196FC018081882331F061E00E9458001F
S113012089918111FACFDF91CF910895CF93DF9315
S1130130CDB7DEB760970FB6F894DEBF0FBECDBF64
S113014090E08F3091058CF420E1E6E9F0E0DE01E7
S1130150119601900D922A95E1F7E1E0F0E0EC0FA1
S1130160FD1FE80FF91F808101C08FEF60960FB665
S1130170F894DEBF0FBECDBFDF91CF9108959C01EF
S113018083E083BF83E808C082BF98B7916098BFBB
S1130190A89508B600FEFDCF21503109A8F713BE7B
S11301A00895B89AB99ABA9A80E190E00E94BF0083
S11301B060E080E30E94490085E090E00E94BF0077
S11301C060E080E30E94490081E090E00E94BF006B
S11301D060E08CE30E94580060E08CE00E945800CC
S11301E060E086E00E94580060E081E00E945800D0
S11301F00895CF93DF93EB019FE094BB9FEF95BBF2
S113020095B321E030E002C0220F331F8A95E2F754
S11302102095292325BB81E090E00E94BF0083B391
S113022090E0249602C095958795CA95E2F721E05F
S113023082278170DF91CF910895CF92DF92EF9260
S1130240FF920F931F93CF93DF9300E010E0C12C34
S1130250D12C14C0BE01C8010E94F900882329F0E2
S11302608E2D880F880F8C0F0EC02196C430D105B7
S113027089F70F5F1F4F0430110521F0E02ECC2DBC
S1130280DD2DE8CF8FEFDF91CF911F910F91FF907C
S1130290EF90DF90CF9008959C0182E083BF86EFBA
S11302A008C082BF98B7916098BFA89508B600FEB1
S11302B0FDCF21503109A8F713BE0895EF92FF92A4
S11302C00F931F93CF93DF93BB9A6115710581F050
S11302D08C017B01C0E0D0E0C39AC8010E944C01AC
S11302E0C398C8010E944C012196CE15DF05A1F7E1
S11302F0DF91CF911F910F91FF90EF9008950F938D
S11303001F93CF93DF93CDB7DEB7A8970FB6F894BA
S1130310DEBF0FBECDBF80918A0190918B01892BE6
S113032091F460E081E00E946D008EE0E6EAF0E086
S1130330DE01119601900D928A95E1F7CE010196A6
S11303400E94850029C060E081E00E946D00409118
S113035060005091610020916200309163008091AF
S11303606400909165005F934F933F932F939F9305
S11303708F9384EB90E09F938F938E010F5F1F4FB9
S11303801F930F930E945307C8010E9485000FB664
S1130390F894DEBF0FBECDBFA8960FB6F894DEBFAB
S11303A00FBECDBFDF91CF911F910F9108950F9391
S11303B01F93CF93DF93CDB7DEB7A8970FB6F8940A
S11303C0DEBF0FBECDBF60E080E00E946D004091B3
S11303D08C0150918D0120918E0130918F0180917B
S11303E09001909191015F934F933F932F939F932B
S11303F08F938AEC90E09F938F938E010F5F1F4F32
S11304001F930F930E945307C8010E9485000FB6E3
S1130410F894DEBF0FBECDBFA8960FB6F894DEBF2A
S11304200FBECDBFDF91CF911F910F9108958091A1
S11304308C0190918D01892B41F080918C019091D8
S11304408D010A9710F4D89A0BC080918C01909179
S11304508D01892B19F4D898D99802C0D89AD99AC1
S113046080918E0190918F01892B41F080918E01B2
S113047090918F010A9710F4DA9A0BC080918E0143
S113048090918F01892B19F4DA98DB9802C0DA9ADB
S1130490DB9A8091900190919101892B41F0809198
S11304A09001909191010A9710F4DC9A089580913B
S11304B0900190919101892B19F4DC98DD980895AD
S11304C0DC9ADD9A08951BBA8AEF90E00E94BF007F
S11304D08FEF8BBB8AEF90E00E94BF001BBA089598
S11304E0EF92FF920F931F93CF93DF93BC9816164E
S11304F0170624F5B4990CC003C02496B4990DC012
S113050081E090E090938701809386011BBA16C026
S11305107B01C82FD92F00E010E00E9463026A819A
S11305207B81888199810E945E0188E893E10E9421
S11305304C010F5F1F4F0E151F05F9F6DF91CF9188
S11305401F910F91FF90EF900895209190013091A9
S1130550910180916400909165002817390721F575
S1130560E0918E01F0918F016091620070916300BF
S113057040918C0150918D01209160003091610077
S113058081E04217530709F080E0882369F081E095
S1130590E617F70709F080E0882331F081E090E066
S11305A090938301809382010895809186019091B4
S11305B08701892B61F46CE070E086E690E00E948C
S11305C070028091860190918701892BA1F310928A
S11305D0870110928601089580918C0190918D017C
S11305E0CC9759F580918C0190918D01CC97C1F4F1
S11305F080918E0190918F01CB9791F410928D018F
S113060010928C0110928F0110928E0180919001B2
S113061090919101019690939101809390010DC066
S113062010928D0110928C0180918E0190918F0116
S1130630019690938F0180938E0180919001909107
S11306409101489760F010928D0110928C011092E4
S11306508F0110928E01109291011092900180915D
S1130660840190918501892B11F40E947F010E94DD
S1130670D7010E94A5020E94170280918C019091DB
S11306808D01019690938D0180938C010895CF93F1
S1130690DF93CDB7DEB7A8970FB6F894DEBF0FBED1
S11306A0CDBF4997D4F00E94680060E081E00E94C9
S11306B06D008EE0EFEDF0E0DE01119601900D92F9
S11306C08A95E1F7CE0101960E94850088EE93E0B9
S11306D00E94BF0080E090E03CC06C337105D4F010
S11306E00E94680060E081E00E946D0080E1EDEE10
S11306F0F0E0DE01119601900D928A95E1F7CE01AA
S113070001960E94850088EE93E00E94BF0080E07D
S113071090E01FC04C335105D4F00E94680060E0A3
S113072081E00E946D0080E1EDEFF0E0DE011196C2
S113073001900D928A95E1F7CE0101960E94850001
S113074088EE93E00E94BF0080E090E002C081E068
S113075090E0A8960FB6F894DEBF0FBECDBFDF9130
S1130760CF910895CF92DF92EF92FF920F931F9350
S1130770CF93DF93CDB7DEB7E7970FB6F894DEBF1C
S11307800FBECDBF1BBAF89460E080E00E946D00FC
S11307908DE091E09F938F9380E191E09F938F93FD
S11307A083E191E09F938F9386E191E09F938F93F0
S11307B08E010F5F1F4F1F930F930E945307C801B1
S11307C00E94850060E080E00E946D000E947F012D
S11307D066E080E00E946D001C8E1B8E85E090E038
S11307E09E8F8D8F8F8D0FB6F894DEBF0FBECDBF59
S11307F0833209F448C001E010E00E941D010E9408
S113080096008F8F8F8D8033B0F18F8D8A3398F55A
S11308108B8D9C8D0697BCF58B8D9C8D029719F45E
S11308208AE30E9481008B8D9C8D049719F48AE3DE
S11308300E9481008F8D0E9481008B8D9C8D9C0174
S11308402F5F3F4F3C8F2B8F2F8DE1E1F0E0EC0FBA
S1130850FD1FE80FF91F20832D8D3E8DC9010197DF
S11308609E8F8D8F3BB3C80102C0880F991F2A95B4
S1130870E2F7832B8BBB8AEF90E00E94BF008F8D41
S1130880833209F0BACFEB8DFC8DEC0FFD1F118A7A
S11308908B8D9C8D0597DCF478940E94680060E051
S11308A080E00E946D008EE0E8E2F1E0DE01119646
S11308B001900D928A95E1F7CE0101960E94850080
S11308C088EE93E00E94BF001BBA8F8D34C08989E3
S11308D088A38A8989A31AA28B8988A78C8989A766
S11308E01AA68D8988AB8E8989AB1AAACE01809607
S11308F00E942D076C01CE0188960E942D077C0171
S1130900CE01C0960E942D078C01AC01B701C6012F
S11309100E944703892B61F0D0929101C09290010B
S1130920F0928F01E0928E0110938D0100938C015F
S11309301BBA78948F8DE7960FB6F894DEBF0FBE7E
S1130940CDBFDF91CF911F910F91FF90EF90DF907A
S1130950CF9008958F929F92AF92BF92CF92DF92E1
S1130960EF92FF920F931F93CF93DF93CDB7DEB730
S1130970E4970FB6F894DEBF0FBECDBF0E946800A7
S113098060E080E00E946D000E94D70160E081E099
S11309900E946D008DE091E09F938F9380E191E040
S11309A09F938F9383E191E09F938F9386E391E0EC
S11309B09F938F938E010F5F1F4F1F930F930E947E
S11309C05307C8010E9485000FB6F894DEBF0FBE1E
S11309D0CDBF0F2EF5E0AF2EB12CF02DC12CD12CB4
S11309E0E12CF12C88248394912C0E941D010E94F7
S11309F09600182F67E06C0D81E00E946D0080ED79
S1130A00810F8A30B0F596E0E916F104CCF582E066
S1130A10E816F10439F48AE30E9481009FEFC91AB1
S1130A20D90A0AC084E0E816F10431F48AE30E948A
S1130A3081009FEFC91AD90A812F0E948100E3E146
S1130A40F0E0EC0FFD1FEE0DFF1D10838FEFC81AB1
S1130A50D80A2BB3C4010A2C02C0880F991F0A9428
S1130A60E2F7822B8BBBC50101975C01C70101969C
S1130A707C018AEF90E00E94BF00133209F0B5CFE9
S1130A80FE01EE0DFF1D138A95E0E916F104CCF486
S1130A900E94680060E081E00E946D008EE0E9E45D
S1130AA0F1E0DE01119601900D928A95E1F7CE01F5
S1130AB001960E9485008CED95E00E94BF001BBA50
S1130AC038C08B898DA78C898EA71FA68D898DA38D
S1130AD08E898EA31FA28F898D8F888D8E8F1F8EF6
S1130AE0CE018D960E942D075C01CE0185960E9451
S1130AF02D076C01CE014D960E942D077C01AC019F
S1130B00B601C5010E944703892B91F0B09265009C
S1130B10A0926400D0926300C0926200F0926100DF
S1130B20E092600081E090E090938B0180938A01D1
S1130B301BBA812FE4960FB6F894DEBF0FBECDBF6B
S1130B40DF91CF911F910F91FF90EF90DF90CF90A5
S1130B50BF90AF909F908F900895AF92BF92CF9225
S1130B60DF92EF92FF920F931F93CF93DF93CDB752
S1130B70DEB76C970FB6F894DEBF0FBECDBF0E94F0
S1130B80680060E080E00E946D000E94D70160E090
S1130B9081E00E946D0087E591E09F938F938CE53F
S1130BA091E09F938F938E010F5F1F4F1F930F93BD
S1130BB00E945307C8010E9485000F900F900F9068
S1130BC00F900F900F900F2EF3E0CF2ED12CF02D1D
S1130BD0E12CF12CAA24A394B12C0E941D010E94A3
S1130BE09600182F65E06E0D81E00E946D0080ED87
S1130BF0810F8A30F0F484E0E816F10404F5812FC3
S1130C000E948100E3E1F0E0EC0FFD1FEE0DFF1DFB
S1130C1010832BB3C5010C2C02C0880F991F0A94B2
S1130C20E2F7822B8BBBC60101976C01C7010196C9
S1130C307C018AEF90E00E94BF001A3271F693E0C3
S1130C40E916F104C4F460E081E00E946D008FE0D5
S1130C50E5E6F1E0DE01119601900D928A95E1F747
S1130C60CE0101960E94850088EE93E00E94BF00A9
S1130C708FEF9FEF0BC0E3E1F0E0EC0FFD1FEE0DF3
S1130C80FF1D1082CE0143960E942D071BBA6C965D
S1130C900FB6F894DEBF0FBECDBFDF91CF911F9189
S1130CA00F91FF90EF90DF90CF90BF90AF90089599
S1130CB0CF93DF93CDB7DEB762970FB6F894DEBF5C
S1130CC00FBECDBF8091880190918901892B59F184
S1130CD00E94AD05992354F1209192013091930122
S1130CE08217930731F10E94680060E080E00E945F
S1130CF06D000E94D70160E081E00E946D008EE0EB
S1130D00E4E7F1E0DE01119601900D928A95E1F796
S1130D10CE0101960E9485008CED95E00E94BF00F3
S1130D2080E090E008C081E090E005C081E090E0C0
S1130D3002C081E090E062960FB6F894DEBF0FBE69
S1130D40CDBFDF91CF9108950E94AD05992354F052
S1130D50909393018093920181E090E090938901B4
S1130D608093880108958FEF8ABB0E94D1000E946E
S1130D70680078948EB58D608EBD89B7806189BF17
S1130D8084E89EE19BBD8ABDC1E0D0E00E941D01C4
S1130D900E949600813479F4D0938501C093840134
S1130DA00E945806892B11F00E94B203109285010B
S1130DB01092840121C0823479F4D0938501C093C8
S1130DC084010E945806892B11F00E94AA041092F3
S1130DD085011092840110C0833471F4D09385018D
S1130DE0C09384010E945806892B11F00E94A40626
S1130DF01092850110928401809182019091830167
S1130E00892B21F20E94D502109283011092820153
S1130E10BDCF1F920F920FB60F9211242F933F93C1
S1130E204F935F936F937F938F939F93AF93BF93EE
S1130E30EF93FF930E94EC02FF91EF91BF91AF916A
S1130E409F918F917F916F915F914F913F912F91DE
S1130E500F900FBE0F901F901895FC0188279927BB
S1130E60E89421912032E9F3293010F02E30C8F3B0
S1130E702B3241F02D3239F4689404C00E944B07A0
S1130E80820F911D219120532A30C0F31EF49095B6
S1130E9081959F4F08957AE0979F902D879F802D8D
S1130EA0910D11240895AEE0B0E0E9E5F7E00C946B
S1130EB0020A0D891E8986E08C831A8309838FEFC9
S1130EC09FE79E838D83AE01475E5F4F6F89788D68
S1130ED0CE0101960E9476072F813885F801E20F32
S1130EE0F31F10822E96E4E00C941E0AACE0B0E0EE
S1130EF0ECE7F7E00C94F4097C016B018A01FC0136
S1130F0017821682838181FFBDC1CE0101964C01F7
S1130F10F7019381F60193FD859193FF81916F0110
S1130F20882309F4ABC1853239F493FD859193FF8D
S1130F3081916F01853229F4B70190E00E945E0926
S1130F40E7CF512C312C20E02032A0F48B3269F011
S1130F5030F4803259F0833269F420612CC08D3230
S1130F6039F0803339F4216026C02260246023C024
S1130F70286021C027FD27C030ED380F3A3078F4BF
S1130F8026FF06C0FAE05F9E300D1124532E13C0D5
S1130F908AE0389E300D1124332E20620CC08E322C
S1130FA021F426FD6BC1206406C08C3611F4206840
S1130FB002C0883641F4F60193FD859193FF819137
S1130FC06F018111C1CF982F9F7D9554933028F4E0
S1130FD00C5F1F4FFFE3F9830DC0833631F0833775
S1130FE071F0833509F05BC022C0F80180818983E8
S1130FF00E5F1F4F44244394512C540115C03801F3
S1131000F2E06F0E711CF801A080B18026FF03C0CE
S1131010652D70E002C06FEF7FEFC5012C870E9441
S113102053092C0183012C852F77222E17C03801F8
S1131030F2E06F0E711CF801A080B18026FF03C09E
S1131040652D70E002C06FEF7FEFC5012C870E9411
S113105048092C012C852068222E830123FC1BC007
S1131060832D90E048165906B0F4B70180E290E071
S11310700E945E093A94F4CFF50127FC859127FE7E
S113108081915F01B70190E00E945E0931103A94AA
S1131090F1E04F1A51084114510471F7E5C0843648
S11310A011F0893639F5F80127FF07C06081718195
S11310B0828193810C5F1F4F08C060817181072E6C
S11310C0000C880B990B0E5F1F4F2F76722E97FF23
S11310D009C090958095709561957F4F8F4F9F4F74
S11310E02068722E2AE030E0A4010E949609A82EFE
S11310F0A81844C0853729F42F7EB22E2AE030E0A8
S113110025C0F22FF97FBF2E8F36C1F018F4883531
S113111079F0B4C0803719F0883721F0AFC02F2F91
S11311202061B22EB4FE0DC08B2D8460B82E09C090
S113113024FF0AC09F2F9660B92E06C028E030E035
S113114005C020E130E002C020E132E0F801B7FE42
S113115007C060817181828193810C5F1F4F06C03B
S11311606081718180E090E00E5F1F4FA4010E94B6
S11311709609A82EA818FB2DFF777F2E76FE0BC0AC
S1131180372D3E7FA51450F474FE0AC072FC08C0CB
S1131190372D3E7E05C0BA2C372D03C0BA2C01C0B2
S11311A0B52C34FF0DC0FE01EA0DF11D80818033A2
S11311B011F4397E09C032FF06C0B394B39404C05D
S11311C0832F867809F0B39433FD13C030FF06C033
S11311D05A2CB31418F4530C5B18B32CB31468F4DE
S11311E0B70180E290E03C870E945E09B3943C859D
S11311F0F5CFB31410F43B1801C0312C34FF12C0E6
S1131200B70180E390E03C870E945E093C8532FF91
S113121017C031FD03C088E790E002C088E590E084
S1131220B7010CC0832F867859F031FF02C08BE2DE
S113123001C080E237FD8DE2B70190E00E945E09B3
S1131240A51438F4B70180E390E00E945E095A9433
S1131250F7CFAA94F401EA0DF11D8081B70190E063
S11312600E945E09A110F5CF332009F451CEB701D5
S113127080E290E00E945E093A94F6CFF7018681FD
S1131280978102C08FEF9FEF2C96E2E10C94100A35
S1131290FC010590615070400110D8F7809590953D
S11312A08E0F9F1F0895FC01615070400190011042
S11312B0D8F7809590958E0F9F1F08950F931F93D5
S11312C0CF93DF93FB01238121FD03C08FEF9FEFB9
S11312D028C022FF16C046815781248135814217D8
S11312E0530744F4A081B1819D012F5F3F4F3183A7
S11312F020838C93268137812F5F3F4F378326834A
S113130010C0EB01092F182F0084F185E02D0995F9
S1131310892BE1F68E819F8101969F838E83812F95
S1131320902FDF91CF911F910F910895FA01AA2771
S1131330283051F1203181F1E8946F936E7F6E5F14
S11313407F4F8F4F9F4FAF4FB1E03ED0B4E03CD0C2
S1131350670F781F891F9A1FA11D680F791F8A1FA5
S1131360911DA11D6A0F711D811D911DA11D20D00C
S113137009F468943F912AE0269F11243019305DC6
S11313803193DEF6CF010895462F4770405D4193B7
S1131390B3E00FD0C9F7F6CF462F4F70405D4A3304
S11313A018F0495D31FD4052419302D0A9F7EACFCC
S11313B0B4E0A6959795879577956795BA95C9F7FB
S11313C000976105710508959B01AC010A2E0694EE
S11313D05795479537952795BA95C9F7620F731FA7
S11313E0841F951FA01D08952F923F924F925F92E4
S11313F06F927F928F929F92AF92BF92CF92DF9221
S1131400EF92FF920F931F93CF93DF93CDB7DEB785
S1131410CA1BDB0B0FB6F894DEBF0FBECDBF099419
S11314202A88398848885F846E847D848C849B8470
S1131430AA84B984C884DF80EE80FD800C811B817E
S1131440AA81B981CE0FD11D0FB6F894DEBF0FBEAD
S10D1450CDBFED010895F894FFCF1D
S113145A6400640064007200C8007200C80072006C
S113146AC8007200C8007200C8007200C800720086
S113147AC8007200C8007200C8007200C800720076
S113148AC8007200C8003132334134353642373825
S113149A39432A302344416C61726D204E6F7420A3
S11314AA53657400416C61726D3A20253032643A96
S11314BA253032643A253032640054696D653A2025
S11314CA253032643A253032643A25303264004990
S11314DA6E76616C696420486F75727300496E7622
S11314EA616C6964204D696E7574657300496E7622
S11314FA616C6964205365636F6E647300535300AF
S113150A4D4D0048480054696D653A202532733AB6
S113151A2532733A25327300436C6F636B20496E2C
S113152A76616C696400416C61726D3A202532738C
S113153A3A2532733A25327300416C61726D20493F
S113154A6E76616C696400232323230050696E3A22
S113155A202534730050696E20697320496E7661C0
S113156A6C696400496E636F7272656374205069B2
S105157A6E00FD
S9030000FC
